:020000040800F2
:100000000000032015040008F7010008F9010008AA
:10001000FB010008FD010008FF01000800000000CE
:1000200000000000000000000000000001020008C5
:100030000302000800000000050200080702000893
:1000400065040008650400086504000865040008EC
:1000500065040008650400086504000865040008DC
:1000600065040008650400086504000865040008CC
:1000700065040008650400086504000865040008BC
:1000800065040008650400086504000865040008AC
:10009000650400086504000865040008650400089C
:1000A000650400086504000865040008650400088C
:1000B000650400086504000865040008650400087C
:1000C000650400086504000865040008650400086C
:1000D000650400086504000865040008650400085C
:1000E000650400086504000865040008650400084C
:1000F000650400086504000865040008650400083C
:10010000650400086504000865040008650400082B
:10011000650400086504000865040008650400081B
:10012000650400086504000865040008650400080B
:1001300065040008650400086504000865040008FB
:1001400065040008650400086504000865040008EB
:1001500065040008650400086504000865040008DB
:1001600065040008650400086504000865040008CB
:10017000650400086504000865040008000000002C
:1001800065040008650400086504000865040008AB
:10019000650400086504000865040008650400089B
:0C01A000000000000000000065040008E2
:1001AC0010B5054C237833B9044B13B10448AFF3A5
:1001BC0000800123237010BD04000020000000000B
:1001CC00B004000808B5034B1BB103490348AFF357
:1001DC00008008BD0000000008000020B0040008EA
:1001EC0008B500F0E7F8002008BD7047FEE7FEE711
:1001FC00FEE7FEE770477047704708B500F0FAF865
:10020C0008BD0000364AD2F8003843F48033C2F8F7
:10021C00003800230133324AD2F8002812F4003F90
:10022C0003D14FF6FF729342F4D12D4BD3F8003823
:10023C0013F4003F00D1FEE7294BD3F8402842F0DD
:10024C008052C3F8402827490A6842F440420A60A9
:10025C00D3F80828C3F80828D3F8082842F4004239
:10026C00C3F80828D3F8082842F4A052C3F8082889
:10027C001D4AC3F80428D3F8002842F08072C3F852
:10028C000028174BD3F8003813F0007FF9D0154A2B
:10029C00136843F480331360124B5B6813F4803F94
:1002AC00FAD0104A136843F4003313600D4B5B68AB
:1002BC0013F4003FFAD00A4BD3F8082822F00302BB
:1002CC00C3F80828D3F8082842F00202C3F808281B
:1002DC00034BD3F8083813F0080FF9D0704700BF60
:1002EC0000300240007000401964400908B5FFF767
:1002FC0089FF08BD00B583B02B4AD2F8883043F48F
:10030C007003C2F88830294AD2F8003843F0010350
:10031C00C2F80038254BD3F8003813F0020FF9D08F
:10032C00224AD2F8083843F08003C2F80838002378
:10033C00019302E0019B01330193019B4F2BF9D9EF
:10034C001A4AD2F8083843F09003C2F80838002350
:10035C00019302E0019B01330193019B4F2BF9D9CF
:10036C00124BD3F8082822F00302C3F80828D3F85C
:10037C00002822F0847222F48032C3F80028D3F8CB
:10038C00002822F48022C3F800280022C3F8082891
:10039C00D3F808180649C3F80418C3F80C28FFF75B
:1003AC00A5FF03B05DF804FB00ED00E00030024057
:1003BC00103000240C4B1B680C4AA2FB03239B0936
:1003CC00013BB3F1807F0DD24FF0E0225361084B1B
:1003DC00F02183F82310002191610720106183F82C
:1003EC0023107047FEE700BF00000020D34D6210C1
:1003FC0000ED00E0034B1B681BB1024A1368013B84
:10040C001360704720000020DFF834D00D480E49EF
:10041C000E4A002302E0D458C4500433C4188C4252
:10042C00F9D30B4A0B4C002301E013600432A242B7
:10043C00FBD3FFF75FFF00F011F8FFF7D1FE704719
:10044C00000003200000002004000020D00400085D
:10045C000400002024000020FEE7000070B50D4DC4
:10046C000D4C641BA4100026A64209D10B4D0C4C5C
:10047C0000F018F8641BA4100026A64205D170BD2C
:10048C0055F8043B98470136EEE755F8043B98477E
:10049C000136F2E7C8040008C8040008C8040008C4
:1004AC00CC040008F8B500BFF8BC08BC9E467047E9
:0C04BC00F8B500BFF8BC08BC9E467047B5
:0404C800D101000856
:0404CC00AD01000876
:0404D00000C2EB0B70
:0400000508000415D6
:00000001FF
